{
  "contractName": "SideBridge",
  "abi": [
    {
      "constant": true,
      "inputs": [],
      "name": "name",
      "outputs": [
        {
          "name": "",
          "type": "string"
        }
      ],
      "payable": false,
      "stateMutability": "view",
      "type": "function"
    },
    {
      "constant": true,
      "inputs": [],
      "name": "totalSupply",
      "outputs": [
        {
          "name": "",
          "type": "uint256"
        }
      ],
      "payable": false,
      "stateMutability": "view",
      "type": "function"
    },
    {
      "constant": true,
      "inputs": [
        {
          "name": "",
          "type": "address"
        }
      ],
      "name": "balances",
      "outputs": [
        {
          "name": "",
          "type": "uint256"
        }
      ],
      "payable": false,
      "stateMutability": "view",
      "type": "function"
    },
    {
      "constant": true,
      "inputs": [],
      "name": "decimals",
      "outputs": [
        {
          "name": "",
          "type": "uint8"
        }
      ],
      "payable": false,
      "stateMutability": "view",
      "type": "function"
    },
    {
      "constant": true,
      "inputs": [
        {
          "name": "",
          "type": "uint256"
        }
      ],
      "name": "authorities",
      "outputs": [
        {
          "name": "",
          "type": "address"
        }
      ],
      "payable": false,
      "stateMutability": "view",
      "type": "function"
    },
    {
      "constant": true,
      "inputs": [],
      "name": "estimatedGasCostOfWithdraw",
      "outputs": [
        {
          "name": "",
          "type": "uint256"
        }
      ],
      "payable": false,
      "stateMutability": "view",
      "type": "function"
    },
    {
      "constant": true,
      "inputs": [],
      "name": "requiredSignatures",
      "outputs": [
        {
          "name": "",
          "type": "uint256"
        }
      ],
      "payable": false,
      "stateMutability": "view",
      "type": "function"
    },
    {
      "constant": true,
      "inputs": [],
      "name": "symbol",
      "outputs": [
        {
          "name": "",
          "type": "string"
        }
      ],
      "payable": false,
      "stateMutability": "view",
      "type": "function"
    },
    {
      "inputs": [
        {
          "name": "_requiredSignatures",
          "type": "uint256"
        },
        {
          "name": "_authorities",
          "type": "address[]"
        },
        {
          "name": "_estimatedGasCostOfWithdraw",
          "type": "uint256"
        }
      ],
      "payable": false,
      "stateMutability": "nonpayable",
      "type": "constructor"
    },
    {
      "anonymous": false,
      "inputs": [
        {
          "indexed": true,
          "name": "from",
          "type": "address"
        },
        {
          "indexed": true,
          "name": "to",
          "type": "address"
        },
        {
          "indexed": false,
          "name": "tokens",
          "type": "uint256"
        }
      ],
      "name": "Transfer",
      "type": "event"
    },
    {
      "anonymous": false,
      "inputs": [
        {
          "indexed": true,
          "name": "tokenOwner",
          "type": "address"
        },
        {
          "indexed": true,
          "name": "spender",
          "type": "address"
        },
        {
          "indexed": false,
          "name": "tokens",
          "type": "uint256"
        }
      ],
      "name": "Approval",
      "type": "event"
    },
    {
      "anonymous": false,
      "inputs": [
        {
          "indexed": false,
          "name": "recipient",
          "type": "address"
        },
        {
          "indexed": false,
          "name": "value",
          "type": "uint256"
        },
        {
          "indexed": false,
          "name": "transactionHash",
          "type": "bytes32"
        }
      ],
      "name": "DepositConfirmation",
      "type": "event"
    },
    {
      "anonymous": false,
      "inputs": [
        {
          "indexed": false,
          "name": "recipient",
          "type": "address"
        },
        {
          "indexed": false,
          "name": "value",
          "type": "uint256"
        },
        {
          "indexed": false,
          "name": "transactionHash",
          "type": "bytes32"
        }
      ],
      "name": "Deposit",
      "type": "event"
    },
    {
      "anonymous": false,
      "inputs": [
        {
          "indexed": false,
          "name": "recipient",
          "type": "address"
        },
        {
          "indexed": false,
          "name": "value",
          "type": "uint256"
        },
        {
          "indexed": false,
          "name": "mainGasPrice",
          "type": "uint256"
        }
      ],
      "name": "Withdraw",
      "type": "event"
    },
    {
      "anonymous": false,
      "inputs": [
        {
          "indexed": false,
          "name": "messageHash",
          "type": "bytes32"
        }
      ],
      "name": "WithdrawSignatureSubmitted",
      "type": "event"
    },
    {
      "anonymous": false,
      "inputs": [
        {
          "indexed": true,
          "name": "authorityResponsibleForRelay",
          "type": "address"
        },
        {
          "indexed": false,
          "name": "messageHash",
          "type": "bytes32"
        }
      ],
      "name": "CollectedSignatures",
      "type": "event"
    },
    {
      "constant": true,
      "inputs": [
        {
          "name": "tokenOwner",
          "type": "address"
        }
      ],
      "name": "balanceOf",
      "outputs": [
        {
          "name": "",
          "type": "uint256"
        }
      ],
      "payable": false,
      "stateMutability": "view",
      "type": "function"
    },
    {
      "constant": false,
      "inputs": [
        {
          "name": "recipient",
          "type": "address"
        },
        {
          "name": "tokens",
          "type": "uint256"
        }
      ],
      "name": "transfer",
      "outputs": [
        {
          "name": "",
          "type": "bool"
        }
      ],
      "payable": false,
      "stateMutability": "nonpayable",
      "type": "function"
    },
    {
      "constant": false,
      "inputs": [
        {
          "name": "spender",
          "type": "address"
        },
        {
          "name": "tokens",
          "type": "uint256"
        }
      ],
      "name": "approve",
      "outputs": [
        {
          "name": "",
          "type": "bool"
        }
      ],
      "payable": false,
      "stateMutability": "nonpayable",
      "type": "function"
    },
    {
      "constant": true,
      "inputs": [
        {
          "name": "owner",
          "type": "address"
        },
        {
          "name": "spender",
          "type": "address"
        }
      ],
      "name": "allowance",
      "outputs": [
        {
          "name": "",
          "type": "uint256"
        }
      ],
      "payable": false,
      "stateMutability": "view",
      "type": "function"
    },
    {
      "constant": false,
      "inputs": [
        {
          "name": "from",
          "type": "address"
        },
        {
          "name": "to",
          "type": "address"
        },
        {
          "name": "tokens",
          "type": "uint256"
        }
      ],
      "name": "transferFrom",
      "outputs": [
        {
          "name": "",
          "type": "bool"
        }
      ],
      "payable": false,
      "stateMutability": "nonpayable",
      "type": "function"
    },
    {
      "constant": true,
      "inputs": [],
      "name": "isSideBridgeContract",
      "outputs": [
        {
          "name": "",
          "type": "bool"
        }
      ],
      "payable": false,
      "stateMutability": "pure",
      "type": "function"
    },
    {
      "constant": false,
      "inputs": [
        {
          "name": "recipient",
          "type": "address"
        },
        {
          "name": "value",
          "type": "uint256"
        },
        {
          "name": "transactionHash",
          "type": "bytes32"
        }
      ],
      "name": "deposit",
      "outputs": [],
      "payable": false,
      "stateMutability": "nonpayable",
      "type": "function"
    },
    {
      "constant": false,
      "inputs": [
        {
          "name": "recipient",
          "type": "address"
        },
        {
          "name": "value",
          "type": "uint256"
        },
        {
          "name": "mainGasPrice",
          "type": "uint256"
        }
      ],
      "name": "transferToMainViaRelay",
      "outputs": [],
      "payable": false,
      "stateMutability": "nonpayable",
      "type": "function"
    },
    {
      "constant": false,
      "inputs": [
        {
          "name": "signature",
          "type": "bytes"
        },
        {
          "name": "message",
          "type": "bytes"
        }
      ],
      "name": "submitSignature",
      "outputs": [],
      "payable": false,
      "stateMutability": "nonpayable",
      "type": "function"
    },
    {
      "constant": true,
      "inputs": [
        {
          "name": "authority",
          "type": "address"
        },
        {
          "name": "recipient",
          "type": "address"
        },
        {
          "name": "value",
          "type": "uint256"
        },
        {
          "name": "mainTxHash",
          "type": "bytes32"
        }
      ],
      "name": "hasAuthoritySignedMainToSide",
      "outputs": [
        {
          "name": "",
          "type": "bool"
        }
      ],
      "payable": false,
      "stateMutability": "view",
      "type": "function"
    },
    {
      "constant": true,
      "inputs": [
        {
          "name": "authority",
          "type": "address"
        },
        {
          "name": "message",
          "type": "bytes"
        }
      ],
      "name": "hasAuthoritySignedSideToMain",
      "outputs": [
        {
          "name": "",
          "type": "bool"
        }
      ],
      "payable": false,
      "stateMutability": "view",
      "type": "function"
    },
    {
      "constant": true,
      "inputs": [
        {
          "name": "messageHash",
          "type": "bytes32"
        },
        {
          "name": "index",
          "type": "uint256"
        }
      ],
      "name": "signature",
      "outputs": [
        {
          "name": "",
          "type": "bytes"
        }
      ],
      "payable": false,
      "stateMutability": "view",
      "type": "function"
    },
    {
      "constant": true,
      "inputs": [
        {
          "name": "message_hash",
          "type": "bytes32"
        }
      ],
      "name": "message",
      "outputs": [
        {
          "name": "",
          "type": "bytes"
        }
      ],
      "payable": false,
      "stateMutability": "view",
      "type": "function"
    }
  ],
  "bytecode": "0x60806040526040805190810160405280600a81526020017f5369646542726964676500000000000000000000000000000000000000000000815250600190805190602001906200005192919062000157565b506040805190810160405280600481526020017f4245544800000000000000000000000000000000000000000000000000000000815250600290805190602001906200009f92919062000157565b506012600360006101000a81548160ff021916908360ff160217905550348015620000c957600080fd5b506040516200276738038062002767833981018060405281019080805190602001909291908051820192919060200180519060200190929190505050600083141515156200011657600080fd5b815183111515156200012757600080fd5b82600681905550816008908051906020019062000146929190620001de565b5080600781905550505050620002db565b828054600181600116156101000203166002900490600052602060002090601f016020900481019282601f106200019a57805160ff1916838001178555620001cb565b82800160010185558215620001cb579182015b82811115620001ca578251825591602001919060010190620001ad565b5b509050620001da91906200026d565b5090565b8280548282559060005260206000209081019282156200025a579160200282015b82811115620002595782518260006101000a81548173ffffffffffffffffffffffffffffffffffffffff021916908373ffffffffffffffffffffffffffffffffffffffff16021790555091602001919060010190620001ff565b5b50905062000269919062000295565b5090565b6200029291905b808211156200028e57600081600090555060010162000274565b5090565b90565b620002d891905b80821115620002d457600081816101000a81549073ffffffffffffffffffffffffffffffffffffffff0219169055506001016200029c565b5090565b90565b61247c80620002eb6000396000f30060806040526004361061011d576000357c0100000000000000000000000000000000000000000000000000000000900463ffffffff16806306fdde0314610122578063095ea7b3146101b25780631812d9961461021757806318160ddd146102cb57806323b872dd146102f657806326b3293f1461037b57806327e235e3146103d6578063313ce5671461042d578063490a32c61461045e578063494503d4146105085780635d728582146105755780635fe9219a14610616578063630cea8e1461066d57806370a082311461071c5780637bb0aefe1461077357806382bbe365146108065780638d0680431461083157806395d89b411461085c578063a9059cbb146108ec578063ab6b551e14610951578063dd62ed3e14610980575b600080fd5b34801561012e57600080fd5b506101376109f7565b6040518080602001828103825283818151815260200191508051906020019080838360005b8381101561017757808201518184015260208101905061015c565b50505050905090810190601f1680156101a45780820380516001836020036101000a031916815260200191505b509250505060405180910390f35b3480156101be57600080fd5b506101fd600480360381019080803573ffffffffffffffffffffffffffffffffffffffff16906020019092919080359060200190929190505050610a95565b604051808215151515815260200191505060405180910390f35b34801561022357600080fd5b50610250600480360381019080803560001916906020019092919080359060200190929190505050610b87565b6040518080602001828103825283818151815260200191508051906020019080838360005b83811015610290578082015181840152602081019050610275565b50505050905090810190601f1680156102bd5780820380516001836020036101000a031916815260200191505b509250505060405180910390f35b3480156102d757600080fd5b506102e0610c5f565b6040518082815260200191505060405180910390f35b34801561030257600080fd5b50610361600480360381019080803573ffffffffffffffffffffffffffffffffffffffff169060200190929190803573ffffffffffffffffffffffffffffffffffffffff16906020019092919080359060200190929190505050610c65565b604051808215151515815260200191505060405180910390f35b34801561038757600080fd5b506103d4600480360381019080803573ffffffffffffffffffffffffffffffffffffffff169060200190929190803590602001909291908035600019169060200190929190505050610f63565b005b3480156103e257600080fd5b50610417600480360381019080803573ffffffffffffffffffffffffffffffffffffffff169060200190929190505050611376565b6040518082815260200191505060405180910390f35b34801561043957600080fd5b5061044261138e565b604051808260ff1660ff16815260200191505060405180910390f35b34801561046a57600080fd5b5061048d60048036038101908080356000191690602001909291905050506113a1565b6040518080602001828103825283818151815260200191508051906020019080838360005b838110156104cd5780820151818401526020810190506104b2565b50505050905090810190601f1680156104fa5780820380516001836020036101000a031916815260200191505b509250505060405180910390f35b34801561051457600080fd5b5061053360048036038101908080359060200190929190505050611461565b604051808273ffffffffffffffffffffffffffffffffffffffff1673ffffffffffffffffffffffffffffffffffffffff16815260200191505060405180910390f35b34801561058157600080fd5b506105fc600480360381019080803573ffffffffffffffffffffffffffffffffffffffff169060200190929190803590602001908201803590602001908080601f016020809104026020016040519081016040528093929190818152602001838380828437820191505050505050919291929050505061149f565b604051808215151515815260200191505060405180910390f35b34801561062257600080fd5b5061066b600480360381019080803573ffffffffffffffffffffffffffffffffffffffff16906020019092919080359060200190929190803590602001909291905050506115cc565b005b34801561067957600080fd5b5061071a600480360381019080803590602001908201803590602001908080601f0160208091040260200160405190810160405280939291908181526020018383808284378201915050505050509192919290803590602001908201803590602001908080601f0160208091040260200160405190810160405280939291908181526020018383808284378201915050505050509192919290505050611765565b005b34801561072857600080fd5b5061075d600480360381019080803573ffffffffffffffffffffffffffffffffffffffff169060200190929190505050611b4d565b6040518082815260200191505060405180910390f35b34801561077f57600080fd5b506107ec600480360381019080803573ffffffffffffffffffffffffffffffffffffffff169060200190929190803573ffffffffffffffffffffffffffffffffffffffff169060200190929190803590602001909291908035600019169060200190929190505050611b96565b604051808215151515815260200191505060405180910390f35b34801561081257600080fd5b5061081b611cb8565b6040518082815260200191505060405180910390f35b34801561083d57600080fd5b50610846611cbe565b6040518082815260200191505060405180910390f35b34801561086857600080fd5b50610871611cc4565b6040518080602001828103825283818151815260200191508051906020019080838360005b838110156108b1578082015181840152602081019050610896565b50505050905090810190601f1680156108de5780820380516001836020036101000a031916815260200191505b509250505060405180910390f35b3480156108f857600080fd5b50610937600480360381019080803573ffffffffffffffffffffffffffffffffffffffff16906020019092919080359060200190929190505050611d62565b604051808215151515815260200191505060405180910390f35b34801561095d57600080fd5b50610966611f4a565b604051808215151515815260200191505060405180910390f35b34801561098c57600080fd5b506109e1600480360381019080803573ffffffffffffffffffffffffffffffffffffffff169060200190929190803573ffffffffffffffffffffffffffffffffffffffff169060200190929190505050611f53565b6040518082815260200191505060405180910390f35b60018054600181600116156101000203166002900480601f016020809104026020016040519081016040528092919081815260200182805460018160011615610100020316600290048015610a8d5780601f10610a6257610100808354040283529160200191610a8d565b820191906000526020600020905b815481529060010190602001808311610a7057829003601f168201915b505050505081565b600081600560003373ffffffffffffffffffffffffffffffffffffffff1673ffffffffffffffffffffffffffffffffffffffff16815260200190815260200160002060008573ffffffffffffffffffffffffffffffffffffffff1673ffffffffffffffffffffffffffffffffffffffff168152602001908152602001600020819055508273ffffffffffffffffffffffffffffffffffffffff163373ffffffffffffffffffffffffffffffffffffffff167f8c5be1e5ebec7d5bd14f71427d1e84f3dd0314c0f7b2291e5b200ac8c7c3b925846040518082815260200191505060405180910390a36001905092915050565b6060600a6000846000191660001916815260200190815260200160002060020182815481101515610bb457fe5b906000526020600020018054600181600116156101000203166002900480601f016020809104026020016040519081016040528092919081815260200182805460018160011615610100020316600290048015610c525780601f10610c2757610100808354040283529160200191610c52565b820191906000526020600020905b815481529060010190602001808311610c3557829003601f168201915b5050505050905092915050565b60005481565b600081600460008673ffffffffffffffffffffffffffffffffffffffff1673ffffffffffffffffffffffffffffffffffffffff1681526020019081526020016000205410151515610cb557600080fd5b81600560008673ffffffffffffffffffffffffffffffffffffffff1673ffffffffffffffffffffffffffffffffffffffff16815260200190815260200160002060003373ffffffffffffffffffffffffffffffffffffffff1673ffffffffffffffffffffffffffffffffffffffff1681526020019081526020016000205410151515610d4057600080fd5b600460008473ffffffffffffffffffffffffffffffffffffffff1673ffffffffffffffffffffffffffffffffffffffff1681526020019081526020016000205482600460008673ffffffffffffffffffffffffffffffffffffffff1673ffffffffffffffffffffffffffffffffffffffff168152602001908152602001600020540110151515610dcf57600080fd5b81600460008573ffffffffffffffffffffffffffffffffffffffff1673ffffffffffffffffffffffffffffffffffffffff1681526020019081526020016000206000828254019250508190555081600460008673ffffffffffffffffffffffffffffffffffffffff1673ffffffffffffffffffffffffffffffffffffffff1681526020019081526020016000206000828254039250508190555081600560008673ffffffffffffffffffffffffffffffffffffffff1673ffffffffffffffffffffffffffffffffffffffff16815260200190815260200160002060003373ffffffffffffffffffffffffffffffffffffffff1673ffffffffffffffffffffffffffffffffffffffff168152602001908152602001600020600082825403925050819055508273ffffffffffffffffffffffffffffffffffffffff168473ffffffffffffffffffffffffffffffffffffffff167fddf252ad1be2c89b69c2b068fc378daa952ba7f163c4a11628f55a4df523b3ef846040518082815260200191505060405180910390a3600190509392505050565b6000610ff56008805480602002602001604051908101604052809291908181526020018280548015610fea57602002820191906000526020600020905b8160009054906101000a900473ffffffffffffffffffffffffffffffffffffffff1673ffffffffffffffffffffffffffffffffffffffff1681526020019060010190808311610fa0575b505050505033611fda565b151561100057600080fd5b838383604051808473ffffffffffffffffffffffffffffffffffffffff1673ffffffffffffffffffffffffffffffffffffffff166c01000000000000000000000000028152601401838152602001826000191660001916815260200193505050506040518091039020905061111460096000836000191660001916815260200190815260200160002080548060200260200160405190810160405280929190818152602001828054801561110957602002820191906000526020600020905b8160009054906101000a900473ffffffffffffffffffffffffffffffffffffffff1673ffffffffffffffffffffffffffffffffffffffff16815260200190600101908083116110bf575b505050505033611fda565b15151561112057600080fd5b6009600082600019166000191681526020019081526020016000203390806001815401808255809150509060018203906000526020600020016000909192909190916101000a81548173ffffffffffffffffffffffffffffffffffffffff021916908373ffffffffffffffffffffffffffffffffffffffff1602179055505060065460096000836000191660001916815260200190815260200160002080549050141515611248577f82e9885b59946d922664d6e9c439efafebc983ce46aede53b1916dbb897c137a848484604051808473ffffffffffffffffffffffffffffffffffffffff1673ffffffffffffffffffffffffffffffffffffffff1681526020018381526020018260001916600019168152602001935050505060405180910390a1611370565b82600460008673ffffffffffffffffffffffffffffffffffffffff1673ffffffffffffffffffffffffffffffffffffffff168152602001908152602001600020600082825401925050819055508260008082825401925050819055508373ffffffffffffffffffffffffffffffffffffffff1660007fddf252ad1be2c89b69c2b068fc378daa952ba7f163c4a11628f55a4df523b3ef856040518082815260200191505060405180910390a37f1a771fe656018364a9369da21954bb3081cb08b0196c27e43ca59c7cae872737848484604051808473ffffffffffffffffffffffffffffffffffffffff1673ffffffffffffffffffffffffffffffffffffffff1681526020018381526020018260001916600019168152602001935050505060405180910390a15b50505050565b60046020528060005260406000206000915090505481565b600360009054906101000a900460ff1681565b6060600a600083600019166000191681526020019081526020016000206000018054600181600116156101000203166002900480601f0160208091040260200160405190810160405280929190818152602001828054600181600116156101000203166002900480156114555780601f1061142a57610100808354040283529160200191611455565b820191906000526020600020905b81548152906001019060200180831161143857829003601f168201915b50505050509050919050565b60088181548110151561147057fe5b906000526020600020016000915054906101000a900473ffffffffffffffffffffffffffffffffffffffff1681565b600080607483511415156114b257600080fd5b826040518082805190602001908083835b6020831015156114e857805182526020820191506020810190506020830392506114c3565b6001836020036101000a038019825116818451168082178552505050505050905001915050604051809103902090506115c3600a600083600019166000191681526020019081526020016000206001018054806020026020016040519081016040528092919081815260200182805480156115b857602002820191906000526020600020905b8160009054906101000a900473ffffffffffffffffffffffffffffffffffffffff1673ffffffffffffffffffffffffffffffffffffffff168152602001906001019080831161156e575b505050505085611fda565b91505092915050565b600082600460003373ffffffffffffffffffffffffffffffffffffffff1673ffffffffffffffffffffffffffffffffffffffff168152602001908152602001600020541015151561161c57600080fd5b60008311151561162b57600080fd5b81600754029050808311151561164057600080fd5b82600460003373ffffffffffffffffffffffffffffffffffffffff1673ffffffffffffffffffffffffffffffffffffffff1681526020019081526020016000206000828254039250508190555082600080828254039250508190555060003373ffffffffffffffffffffffffffffffffffffffff167fddf252ad1be2c89b69c2b068fc378daa952ba7f163c4a11628f55a4df523b3ef856040518082815260200191505060405180910390a37ff279e6a1f5e320cca91135676d9cb6e44ca8a08c0b88342bcdb1144f6511b568848484604051808473ffffffffffffffffffffffffffffffffffffffff1673ffffffffffffffffffffffffffffffffffffffff168152602001838152602001828152602001935050505060405180910390a150505050565b60006117f760088054806020026020016040519081016040528092919081815260200182805480156117ec57602002820191906000526020600020905b8160009054906101000a900473ffffffffffffffffffffffffffffffffffffffff1673ffffffffffffffffffffffffffffffffffffffff16815260200190600101908083116117a2575b505050505033611fda565b151561180257600080fd5b61180c8383612058565b73ffffffffffffffffffffffffffffffffffffffff163373ffffffffffffffffffffffffffffffffffffffff1614151561184557600080fd5b6074825114151561185557600080fd5b816040518082805190602001908083835b60208310151561188b5780518252602082019150602081019050602083039250611866565b6001836020036101000a03801982511681845116808217855250505050505090500191505060405180910390209050611966600a6000836000191660001916815260200190815260200160002060010180548060200260200160405190810160405280929190818152602001828054801561195b57602002820191906000526020600020905b8160009054906101000a900473ffffffffffffffffffffffffffffffffffffffff1673ffffffffffffffffffffffffffffffffffffffff1681526020019060010190808311611911575b505050505033611fda565b15151561197257600080fd5b81600a6000836000191660001916815260200190815260200160002060000190805190602001906119a49291906123ab565b50600a600082600019166000191681526020019081526020016000206001013390806001815401808255809150509060018203906000526020600020016000909192909190916101000a81548173ffffffffffffffffffffffffffffffffffffffff021916908373ffffffffffffffffffffffffffffffffffffffff16021790555050600a60008260001916600019168152602001908152602001600020600201839080600181540180825580915050906001820390600052602060002001600090919290919091509080519060200190611a809291906123ab565b5050600654600a60008360001916600019168152602001908152602001600020600101805490501415611b08573373ffffffffffffffffffffffffffffffffffffffff167feb043d149eedb81369bec43d4c3a3a53087debc88d2525f13bfaa3eecda28b5c8260405180826000191660001916815260200191505060405180910390a2611b48565b7ffc962d5f0de9bd4b90181a7ec60354bcefe1e162eaf760919b07496a184d665a8160405180826000191660001916815260200191505060405180910390a15b505050565b6000600460008373ffffffffffffffffffffffffffffffffffffffff1673ffffffffffffffffffffffffffffffffffffffff168152602001908152602001600020549050919050565b600080848484604051808473ffffffffffffffffffffffffffffffffffffffff1673ffffffffffffffffffffffffffffffffffffffff166c010000000000000000000000000281526014018381526020018260001916600019168152602001935050505060405180910390209050611cad600960008360001916600019168152602001908152602001600020805480602002602001604051908101604052809291908181526020018280548015611ca257602002820191906000526020600020905b8160009054906101000a900473ffffffffffffffffffffffffffffffffffffffff1673ffffffffffffffffffffffffffffffffffffffff1681526020019060010190808311611c58575b505050505087611fda565b915050949350505050565b60075481565b60065481565b60028054600181600116156101000203166002900480601f016020809104026020016040519081016040528092919081815260200182805460018160011615610100020316600290048015611d5a5780601f10611d2f57610100808354040283529160200191611d5a565b820191906000526020600020905b815481529060010190602001808311611d3d57829003601f168201915b505050505081565b600081600460003373ffffffffffffffffffffffffffffffffffffffff1673ffffffffffffffffffffffffffffffffffffffff1681526020019081526020016000205410151515611db257600080fd5b600460008473ffffffffffffffffffffffffffffffffffffffff1673ffffffffffffffffffffffffffffffffffffffff1681526020019081526020016000205482600460008673ffffffffffffffffffffffffffffffffffffffff1673ffffffffffffffffffffffffffffffffffffffff168152602001908152602001600020540110151515611e4157600080fd5b81600460003373ffffffffffffffffffffffffffffffffffffffff1673ffffffffffffffffffffffffffffffffffffffff1681526020019081526020016000206000828254039250508190555081600460008573ffffffffffffffffffffffffffffffffffffffff1673ffffffffffffffffffffffffffffffffffffffff168152602001908152602001600020600082825401925050819055508273ffffffffffffffffffffffffffffffffffffffff163373ffffffffffffffffffffffffffffffffffffffff167fddf252ad1be2c89b69c2b068fc378daa952ba7f163c4a11628f55a4df523b3ef846040518082815260200191505060405180910390a36001905092915050565b60006001905090565b6000600560008473ffffffffffffffffffffffffffffffffffffffff1673ffffffffffffffffffffffffffffffffffffffff16815260200190815260200160002060008373ffffffffffffffffffffffffffffffffffffffff1673ffffffffffffffffffffffffffffffffffffffff16815260200190815260200160002054905092915050565b600080600090505b835181101561204c578273ffffffffffffffffffffffffffffffffffffffff16848281518110151561201057fe5b9060200190602002015173ffffffffffffffffffffffffffffffffffffffff16141561203f5760019150612051565b8080600101915050611fe2565b600091505b5092915050565b6000806000806041865114151561206e57600080fd5b602086015192506040860151915060608601519050600161208e8661213a565b827f010000000000000000000000000000000000000000000000000000000000000090048585604051600081526020016040526040518085600019166000191681526020018460ff1660ff1681526020018360001916600019168152602001826000191660001916815260200194505050505060206040516020810390808403906000865af1158015612125573d6000803e3d6000fd5b50505060206040510351935050505092915050565b600060606040805190810160405280601a81526020017f19457468657265756d205369676e6564204d6573736167653a0a0000000000008152509050806121818451612294565b846040518084805190602001908083835b6020831015156121b75780518252602082019150602081019050602083039250612192565b6001836020036101000a03801982511681845116808217855250505050505090500183805190602001908083835b60208310151561220a57805182526020820191506020810190506020830392506121e5565b6001836020036101000a03801982511681845116808217855250505050505090500182805190602001908083835b60208310151561225d5780518252602082019150602081019050602083039250612238565b6001836020036101000a03801982511681845116808217855250505050505090500193505050506040518091039020915050919050565b6060600080606060008093508592505b8380600101945050600a838115156122b857fe5b0492506000831415156122ca576122a4565b836040519080825280601f01601f1916602001820160405280156122fd5781602001602082028038833980820191505090505b5091506001840390508592505b600a8381151561231657fe5b066030017f01000000000000000000000000000000000000000000000000000000000000000282828060019003935081518110151561235157fe5b9060200101907effffffffffffffffffffffffffffffffffffffffffffffffffffffffffffff1916908160001a905350600a8381151561238d57fe5b04925060008314151561239f5761230a565b81945050505050919050565b828054600181600116156101000203166002900490600052602060002090601f016020900481019282601f106123ec57805160ff191683800117855561241a565b8280016001018555821561241a579182015b828111156124195782518255916020019190600101906123fe565b5b509050612427919061242b565b5090565b61244d91905b80821115612449576000816000905550600101612431565b5090565b905600a165627a7a7230582029a3e7efa4afa73350cc3784d041c63684cb1575090464284a19120ab9b2a7fa0029",
  "source": "pragma solidity ^0.4.17;\n\n\n/// general helpers.\n/// `internal` so they get compiled into contracts using them.\nlibrary Helpers {\n    /// returns whether `array` contains `value`.\n    function addressArrayContains(address[] array, address value) internal pure returns (bool) {\n        for (uint256 i = 0; i < array.length; i++) {\n            if (array[i] == value) {\n                return true;\n            }\n        }\n        return false;\n    }\n\n    // returns the digits of `inputValue` as a string.\n    // example: `uintToString(12345678)` returns `\"12345678\"`\n    function uintToString(uint256 inputValue) internal pure returns (string) {\n        // figure out the length of the resulting string\n        uint256 length = 0;\n        uint256 currentValue = inputValue;\n        do {\n            length++;\n            currentValue /= 10;\n        } while (currentValue != 0);\n        // allocate enough memory\n        bytes memory result = new bytes(length);\n        // construct the string backwards\n        uint256 i = length - 1;\n        currentValue = inputValue;\n        do {\n            result[i--] = byte(48 + currentValue % 10);\n            currentValue /= 10;\n        } while (currentValue != 0);\n        return string(result);\n    }\n\n    /// returns whether signatures (whose components are in `vs`, `rs`, `ss`)\n    /// contain `requiredSignatures` distinct correct signatures\n    /// where signer is in `allowed_signers`\n    /// that signed `message`\n    function hasEnoughValidSignatures(bytes message, uint8[] vs, bytes32[] rs, bytes32[] ss, address[] allowed_signers, uint256 requiredSignatures) internal pure returns (bool) {\n        // not enough signatures\n        if (vs.length < requiredSignatures) {\n            return false;\n        }\n\n        var hash = MessageSigning.hashMessage(message);\n        var encountered_addresses = new address[](allowed_signers.length);\n\n        for (uint256 i = 0; i < requiredSignatures; i++) {\n            var recovered_address = ecrecover(hash, vs[i], rs[i], ss[i]);\n            // only signatures by addresses in `addresses` are allowed\n            if (!addressArrayContains(allowed_signers, recovered_address)) {\n                return false;\n            }\n            // duplicate signatures are not allowed\n            if (addressArrayContains(encountered_addresses, recovered_address)) {\n                return false;\n            }\n            encountered_addresses[i] = recovered_address;\n        }\n        return true;\n    }\n\n}\n\n\n/// Library used only to test Helpers library via rpc calls\nlibrary HelpersTest {\n    function addressArrayContains(address[] array, address value) public pure returns (bool) {\n        return Helpers.addressArrayContains(array, value);\n    }\n\n    function uintToString(uint256 inputValue) public pure returns (string str) {\n        return Helpers.uintToString(inputValue);\n    }\n\n    function hasEnoughValidSignatures(bytes message, uint8[] vs, bytes32[] rs, bytes32[] ss, address[] addresses, uint256 requiredSignatures) public pure returns (bool) {\n        return Helpers.hasEnoughValidSignatures(message, vs, rs, ss, addresses, requiredSignatures);\n    }\n}\n\n\n// helpers for message signing.\n// `internal` so they get compiled into contracts using them.\nlibrary MessageSigning {\n    function recoverAddressFromSignedMessage(bytes signature, bytes message) internal pure returns (address) {\n        require(signature.length == 65);\n        bytes32 r;\n        bytes32 s;\n        bytes1 v;\n        // solium-disable-next-line security/no-inline-assembly\n        assembly {\n            r := mload(add(signature, 0x20))\n            s := mload(add(signature, 0x40))\n            v := mload(add(signature, 0x60))\n        }\n        return ecrecover(hashMessage(message), uint8(v), r, s);\n    }\n\n    function hashMessage(bytes message) internal pure returns (bytes32) {\n        bytes memory prefix = \"\\x19Ethereum Signed Message:\\n\";\n        return keccak256(prefix, Helpers.uintToString(message.length), message);\n    }\n}\n\n\n/// Library used only to test MessageSigning library via rpc calls\nlibrary MessageSigningTest {\n    function recoverAddressFromSignedMessage(bytes signature, bytes message) public pure returns (address) {\n        return MessageSigning.recoverAddressFromSignedMessage(signature, message);\n    }\n}\n\n\nlibrary Message {\n    // layout of message :: bytes:\n    // offset  0: 32 bytes :: uint256 (big endian) - message length (not part of message. any `bytes` begins with the length in memory)\n    // offset 32: 20 bytes :: address - recipient address\n    // offset 52: 32 bytes :: uint256 (big endian) - value\n    // offset 84: 32 bytes :: bytes32 - transaction hash\n    // offset 116: 32 bytes :: uint256 (big endian) - main gas price\n\n    // mload always reads 32 bytes.\n    // if mload reads an address it only interprets the last 20 bytes as the address.\n    // so we can and have to start reading recipient at offset 20 instead of 32.\n    // if we were to read at 32 the address would contain part of value and be corrupted.\n    // when reading from offset 20 mload will ignore 12 bytes followed\n    // by the 20 recipient address bytes and correctly convert it into an address.\n    // this saves some storage/gas over the alternative solution\n    // which is padding address to 32 bytes and reading recipient at offset 32.\n    // for more details see discussion in:\n    // https://github.com/paritytech/parity-bridge/issues/61\n\n    function getRecipient(bytes message) internal pure returns (address) {\n        address recipient;\n        // solium-disable-next-line security/no-inline-assembly\n        assembly {\n            recipient := mload(add(message, 20))\n        }\n        return recipient;\n    }\n\n    function getValue(bytes message) internal pure returns (uint256) {\n        uint256 value;\n        // solium-disable-next-line security/no-inline-assembly\n        assembly {\n            value := mload(add(message, 52))\n        }\n        return value;\n    }\n\n    function getTransactionHash(bytes message) internal pure returns (bytes32) {\n        bytes32 hash;\n        // solium-disable-next-line security/no-inline-assembly\n        assembly {\n            hash := mload(add(message, 84))\n        }\n        return hash;\n    }\n\n    function getMainGasPrice(bytes message) internal pure returns (uint256) {\n        uint256 gasPrice;\n        // solium-disable-next-line security/no-inline-assembly\n        assembly {\n            gasPrice := mload(add(message, 116))\n        }\n        return gasPrice;\n    }\n}\n\n\n/// Library used only to test Message library via rpc calls\nlibrary MessageTest {\n    function getRecipient(bytes message) public pure returns (address) {\n        return Message.getRecipient(message);\n    }\n\n    function getValue(bytes message) public pure returns (uint256) {\n        return Message.getValue(message);\n    }\n\n    function getTransactionHash(bytes message) public pure returns (bytes32) {\n        return Message.getTransactionHash(message);\n    }\n\n    function getMainGasPrice(bytes message) public pure returns (uint256) {\n        return Message.getMainGasPrice(message);\n    }\n}\n\n\ncontract MainBridge {\n    /// Number of authorities signatures required to withdraw the money.\n    ///\n    /// Must be lesser than number of authorities.\n    uint256 public requiredSignatures;\n\n    /// The gas cost of calling `MainBridge.withdraw`.\n    ///\n    /// Is subtracted from `value` on withdraw.\n    /// recipient pays the relaying authority for withdraw.\n    /// this shuts down attacks that exhaust authorities funds on main chain.\n    uint256 public estimatedGasCostOfWithdraw;\n\n    /// reject deposits that would increase `this.balance` beyond this value.\n    /// security feature:\n    /// limits the total amount of mainnet ether that can be lost\n    /// if the bridge is faulty or compromised in any way!\n    /// set to 0 to disable.\n    uint256 public maxTotalMainContractBalance;\n\n    /// reject deposits whose `msg.value` is higher than this value.\n    /// security feature.\n    /// set to 0 to disable.\n    uint256 public maxSingleDepositValue;\n\n    /// Contract authorities.\n    address[] public authorities;\n\n    /// Used side transaction hashes.\n    mapping (bytes32 => bool) public withdraws;\n\n    /// Event created on money deposit.\n    event Deposit (address recipient, uint256 value);\n\n    /// Event created on money withdraw.\n    event Withdraw (address recipient, uint256 value, bytes32 transactionHash);\n\n    /// Constructor.\n    function MainBridge(\n        uint256 requiredSignaturesParam,\n        address[] authoritiesParam,\n        uint256 estimatedGasCostOfWithdrawParam,\n        uint256 maxTotalMainContractBalanceParam,\n        uint256 maxSingleDepositValueParam\n    ) public\n    {\n        require(requiredSignaturesParam != 0);\n        require(requiredSignaturesParam <= authoritiesParam.length);\n        requiredSignatures = requiredSignaturesParam;\n        authorities = authoritiesParam;\n        estimatedGasCostOfWithdraw = estimatedGasCostOfWithdrawParam;\n        maxTotalMainContractBalance = maxTotalMainContractBalanceParam;\n        maxSingleDepositValue = maxSingleDepositValueParam;\n    }\n\n    /// Should be used to deposit money.\n    function () public payable {\n        require(maxSingleDepositValue == 0 || msg.value <= maxSingleDepositValue);\n        // the value of `this.balance` in payable methods is increased\n        // by `msg.value` before the body of the payable method executes\n        require(maxTotalMainContractBalance == 0 || this.balance <= maxTotalMainContractBalance);\n        Deposit(msg.sender, msg.value);\n    }\n\n    /// Called by the bridge node processes on startup\n    /// to determine early whether the address pointing to the main\n    /// bridge contract is misconfigured.\n    /// so we can provide a helpful error message instead of the very\n    /// unhelpful errors encountered otherwise.\n    function isMainBridgeContract() public pure returns (bool) {\n        return true;\n    }\n\n    /// final step of a withdraw.\n    /// checks that `requiredSignatures` `authorities` have signed of on the `message`.\n    /// then transfers `value` to `recipient` (both extracted from `message`).\n    /// see message library above for a breakdown of the `message` contents.\n    /// `vs`, `rs`, `ss` are the components of the signatures.\n\n    /// anyone can call this, provided they have the message and required signatures!\n    /// only the `authorities` can create these signatures.\n    /// `requiredSignatures` authorities can sign arbitrary `message`s\n    /// transfering any ether `value` out of this contract to `recipient`.\n    /// bridge users must trust a majority of `requiredSignatures` of the `authorities`.\n    function withdraw(uint8[] vs, bytes32[] rs, bytes32[] ss, bytes message) public {\n        require(message.length == 116);\n\n        // check that at least `requiredSignatures` `authorities` have signed `message`\n        require(Helpers.hasEnoughValidSignatures(message, vs, rs, ss, authorities, requiredSignatures));\n\n        address recipient = Message.getRecipient(message);\n        uint256 value = Message.getValue(message);\n        bytes32 hash = Message.getTransactionHash(message);\n        uint256 mainGasPrice = Message.getMainGasPrice(message);\n\n        // if the recipient calls `withdraw` they can choose the gas price freely.\n        // if anyone else calls `withdraw` they have to use the gas price\n        // `mainGasPrice` specified by the user initiating the withdraw.\n        // this is a security mechanism designed to shut down\n        // malicious senders setting extremely high gas prices\n        // and effectively burning recipients withdrawn value.\n        // see https://github.com/paritytech/parity-bridge/issues/112\n        // for further explanation.\n        require((recipient == msg.sender) || (tx.gasprice == mainGasPrice));\n\n        // The following two statements guard against reentry into this function.\n        // Duplicated withdraw or reentry.\n        require(!withdraws[hash]);\n        // Order of operations below is critical to avoid TheDAO-like re-entry bug\n        withdraws[hash] = true;\n\n        uint256 estimatedWeiCostOfWithdraw = estimatedGasCostOfWithdraw * mainGasPrice;\n\n        // charge recipient for relay cost\n        uint256 valueRemainingAfterSubtractingCost = value - estimatedWeiCostOfWithdraw;\n\n        // pay out recipient\n        recipient.transfer(valueRemainingAfterSubtractingCost);\n\n        // refund relay cost to relaying authority\n        msg.sender.transfer(estimatedWeiCostOfWithdraw);\n\n        Withdraw(recipient, valueRemainingAfterSubtractingCost, hash);\n    }\n}\n\n\ncontract SideBridge {\n    // following is the part of SideBridge that implements an ERC20 token.\n    // ERC20 spec: https://github.com/ethereum/EIPs/blob/master/EIPS/eip-20.md\n\n    uint256 public totalSupply;\n\n    string public name = \"SideBridge\";\n    // BETH = bridged ether\n    string public symbol = \"BETH\";\n    // 1-1 mapping of ether to tokens\n    uint8 public decimals = 18;\n\n    /// maps addresses to their token balances\n    mapping (address => uint256) public balances;\n\n    // owner of account approves the transfer of an amount by another account\n    mapping(address => mapping (address => uint256)) allowed;\n\n    /// Event created on money transfer\n    event Transfer(address indexed from, address indexed to, uint256 tokens);\n\n    // returns the ERC20 token balance of the given address\n    function balanceOf(address tokenOwner) public view returns (uint256) {\n        return balances[tokenOwner];\n    }\n\n    /// Transfer `value` to `recipient` on this `side` chain.\n    ///\n    /// does not affect `main` chain. does not do a relay.\n    /// as specificed in ERC20 this doesn't fail if tokens == 0.\n    function transfer(address recipient, uint256 tokens) public returns (bool) {\n        require(balances[msg.sender] >= tokens);\n        // fails if there is an overflow\n        require(balances[recipient] + tokens >= balances[recipient]);\n\n        balances[msg.sender] -= tokens;\n        balances[recipient] += tokens;\n        Transfer(msg.sender, recipient, tokens);\n        return true;\n    }\n\n    // following is the part of SideBridge that is concerned\n    // with the part of the ERC20 standard responsible for giving others spending rights\n    // and spending others tokens\n\n    // created when `approve` is executed to mark that\n    // `tokenOwner` has approved `spender` to spend `tokens` of his tokens\n    event Approval(address indexed tokenOwner, address indexed spender, uint256 tokens);\n\n    // allow `spender` to withdraw from your account, multiple times, up to the `tokens` amount.\n    // calling this function repeatedly overwrites the current allowance.\n    function approve(address spender, uint256 tokens) public returns (bool) {\n        allowed[msg.sender][spender] = tokens;\n        Approval(msg.sender, spender, tokens);\n        return true;\n    }\n\n    // returns how much `spender` is allowed to spend of `owner`s tokens\n    function allowance(address owner, address spender) public view returns (uint256) {\n        return allowed[owner][spender];\n    }\n\n    function transferFrom(address from, address to, uint tokens) public returns (bool) {\n        // `from` has enough tokens\n        require(balances[from] >= tokens);\n        // `sender` is allowed to move `tokens` from `from`\n        require(allowed[from][msg.sender] >= tokens);\n        // fails if there is an overflow\n        require(balances[to] + tokens >= balances[to]);\n\n        balances[to] += tokens;\n        balances[from] -= tokens;\n        allowed[from][msg.sender] -= tokens;\n\n        Transfer(from, to, tokens);\n        return true;\n    }\n\n    // following is the part of SideBridge that is\n    // no longer part of ERC20 and is concerned with\n    // with moving tokens from and to MainBridge\n\n    struct SignaturesCollection {\n        /// Signed message.\n        bytes message;\n        /// Authorities who signed the message.\n        address[] authorities;\n        /// Signatures\n        bytes[] signatures;\n    }\n\n    /// Number of authorities signatures required to withdraw the money.\n    ///\n    /// Must be less than number of authorities.\n    uint256 public requiredSignatures;\n\n    uint256 public estimatedGasCostOfWithdraw;\n\n    /// Contract authorities.\n    address[] public authorities;\n\n    /// Pending deposits and authorities who confirmed them\n    mapping (bytes32 => address[]) deposits;\n\n    /// Pending signatures and authorities who confirmed them\n    mapping (bytes32 => SignaturesCollection) signatures;\n\n    /// triggered when an authority confirms a deposit\n    event DepositConfirmation(address recipient, uint256 value, bytes32 transactionHash);\n\n    /// triggered when enough authorities have confirmed a deposit\n    event Deposit(address recipient, uint256 value, bytes32 transactionHash);\n\n    /// Event created on money withdraw.\n    event Withdraw(address recipient, uint256 value, uint256 mainGasPrice);\n\n    event WithdrawSignatureSubmitted(bytes32 messageHash);\n\n    /// Collected signatures which should be relayed to main chain.\n    event CollectedSignatures(address indexed authorityResponsibleForRelay, bytes32 messageHash);\n\n    function SideBridge(\n        uint256 _requiredSignatures,\n        address[] _authorities,\n        uint256 _estimatedGasCostOfWithdraw\n    ) public\n    {\n        require(_requiredSignatures != 0);\n        require(_requiredSignatures <= _authorities.length);\n        requiredSignatures = _requiredSignatures;\n        authorities = _authorities;\n        estimatedGasCostOfWithdraw = _estimatedGasCostOfWithdraw;\n    }\n\n    // Called by the bridge node processes on startup\n    // to determine early whether the address pointing to the side\n    // bridge contract is misconfigured.\n    // so we can provide a helpful error message instead of the\n    // very unhelpful errors encountered otherwise.\n    function isSideBridgeContract() public pure returns (bool) {\n        return true;\n    }\n\n    /// require that sender is an authority\n    modifier onlyAuthority() {\n        require(Helpers.addressArrayContains(authorities, msg.sender));\n        _;\n    }\n\n    /// Used to deposit money to the contract.\n    ///\n    /// deposit recipient (bytes20)\n    /// deposit value (uint256)\n    /// mainnet transaction hash (bytes32) // to avoid transaction duplication\n    function deposit(address recipient, uint256 value, bytes32 transactionHash) public onlyAuthority() {\n        // Protection from misbehaving authority\n        var hash = keccak256(recipient, value, transactionHash);\n\n        // don't allow authority to confirm deposit twice\n        require(!Helpers.addressArrayContains(deposits[hash], msg.sender));\n\n        deposits[hash].push(msg.sender);\n\n        // TODO: this may cause troubles if requiredSignatures len is changed\n        if (deposits[hash].length != requiredSignatures) {\n            DepositConfirmation(recipient, value, transactionHash);\n            return;\n        }\n\n        balances[recipient] += value;\n        // mints tokens\n        totalSupply += value;\n        // ERC20 specifies: a token contract which creates new tokens\n        // SHOULD trigger a Transfer event with the _from address\n        // set to 0x0 when tokens are created.\n        Transfer(0x0, recipient, value);\n        Deposit(recipient, value, transactionHash);\n    }\n\n    /// Transfer `value` from `msg.sender`s local balance (on `side` chain) to `recipient` on `main` chain.\n    ///\n    /// immediately decreases `msg.sender`s local balance.\n    /// emits a `Withdraw` event which will be picked up by the bridge authorities.\n    /// bridge authorities will then sign off (by calling `submitSignature`) on a message containing `value`,\n    /// `recipient` and the `hash` of the transaction on `side` containing the `Withdraw` event.\n    /// once `requiredSignatures` are collected a `CollectedSignatures` event will be emitted.\n    /// an authority will pick up `CollectedSignatures` an call `MainBridge.withdraw`\n    /// which transfers `value - relayCost` to `recipient` completing the transfer.\n    function transferToMainViaRelay(address recipient, uint256 value, uint256 mainGasPrice) public {\n        require(balances[msg.sender] >= value);\n        // don't allow 0 value transfers to main\n        require(value > 0);\n\n        uint256 estimatedWeiCostOfWithdraw = estimatedGasCostOfWithdraw * mainGasPrice;\n        require(value > estimatedWeiCostOfWithdraw);\n\n        balances[msg.sender] -= value;\n        // burns tokens\n        totalSupply -= value;\n        // in line with the transfer event from `0x0` on token creation\n        // recommended by ERC20 (see implementation of `deposit` above)\n        // we trigger a Transfer event to `0x0` on token destruction\n        emit Transfer(msg.sender, 0x0, value);\n        emit Withdraw(recipient, value, mainGasPrice);\n    }\n\n    /// Should be used as sync tool\n    ///\n    /// Message is a message that should be relayed to main chain once authorities sign it.\n    ///\n    /// for withdraw message contains:\n    /// withdrawal recipient (bytes20)\n    /// withdrawal value (uint256)\n    /// side transaction hash (bytes32) // to avoid transaction duplication\n    function submitSignature(bytes signature, bytes message) public onlyAuthority() {\n        // ensure that `signature` is really `message` signed by `msg.sender`\n        require(msg.sender == MessageSigning.recoverAddressFromSignedMessage(signature, message));\n\n        require(message.length == 116);\n        var hash = keccak256(message);\n\n        // each authority can only provide one signature per message\n        require(!Helpers.addressArrayContains(signatures[hash].authorities, msg.sender));\n        signatures[hash].message = message;\n        signatures[hash].authorities.push(msg.sender);\n        signatures[hash].signatures.push(signature);\n\n        // TODO: this may cause troubles if requiredSignatures len is changed\n        if (signatures[hash].authorities.length == requiredSignatures) {\n            CollectedSignatures(msg.sender, hash);\n        } else {\n            WithdrawSignatureSubmitted(hash);\n        }\n    }\n\n    function hasAuthoritySignedMainToSide(address authority, address recipient, uint256 value, bytes32 mainTxHash) public view returns (bool) {\n        var hash = keccak256(recipient, value, mainTxHash);\n\n        return Helpers.addressArrayContains(deposits[hash], authority);\n    }\n\n    function hasAuthoritySignedSideToMain(address authority, bytes message) public view returns (bool) {\n        require(message.length == 116);\n        var messageHash = keccak256(message);\n        return Helpers.addressArrayContains(signatures[messageHash].authorities, authority);\n    }\n\n    /// Get signature\n    function signature(bytes32 messageHash, uint256 index) public view returns (bytes) {\n        return signatures[messageHash].signatures[index];\n    }\n\n    /// Get message\n    function message(bytes32 message_hash) public view returns (bytes) {\n        return signatures[message_hash].message;\n    }\n}\n",
  "sourcePath": "/Users/fancy/Documents/Ocean Protocol/research/POA.network/parityBridge/parity-bridge/truffle/contracts/bridge.sol",
  "compiler": {
    "name": "solc",
    "version": "0.4.25+commit.59dbf8f1.Emscripten.clang"
  },
  "schemaVersion": "3.0.0-beta.1",
  "updatedAt": "2018-11-27T01:29:56.760Z"
}